{
  "contractName": "InvestmentPool",
  "abi": [
    {
      "inputs": [],
      "stateMutability": "nonpayable",
      "type": "constructor"
    },
    {
      "anonymous": false,
      "inputs": [
        {
          "indexed": false,
          "internalType": "uint256",
          "name": "id",
          "type": "uint256"
        }
      ],
      "name": "poolCreated",
      "type": "event"
    },
    {
      "inputs": [],
      "name": "owner",
      "outputs": [
        {
          "internalType": "address",
          "name": "",
          "type": "address"
        }
      ],
      "stateMutability": "view",
      "type": "function"
    },
    {
      "inputs": [
        {
          "internalType": "address",
          "name": "",
          "type": "address"
        },
        {
          "internalType": "uint256",
          "name": "",
          "type": "uint256"
        }
      ],
      "name": "userPools",
      "outputs": [
        {
          "internalType": "uint256",
          "name": "poolId",
          "type": "uint256"
        },
        {
          "internalType": "string",
          "name": "poolName",
          "type": "string"
        },
        {
          "internalType": "uint256",
          "name": "depositAmount",
          "type": "uint256"
        },
        {
          "internalType": "uint256",
          "name": "depositTotal",
          "type": "uint256"
        },
        {
          "internalType": "bool",
          "name": "isActive",
          "type": "bool"
        },
        {
          "internalType": "uint256",
          "name": "round",
          "type": "uint256"
        }
      ],
      "stateMutability": "view",
      "type": "function"
    },
    {
      "stateMutability": "payable",
      "type": "receive"
    },
    {
      "inputs": [
        {
          "internalType": "address[]",
          "name": "_poolMembers",
          "type": "address[]"
        },
        {
          "internalType": "uint256",
          "name": "_depositAmount",
          "type": "uint256"
        }
      ],
      "name": "createPool",
      "outputs": [
        {
          "internalType": "uint256",
          "name": "",
          "type": "uint256"
        }
      ],
      "stateMutability": "nonpayable",
      "type": "function"
    },
    {
      "inputs": [
        {
          "internalType": "uint256",
          "name": "_poolId",
          "type": "uint256"
        }
      ],
      "name": "getPoolMembers",
      "outputs": [
        {
          "internalType": "address[]",
          "name": "",
          "type": "address[]"
        }
      ],
      "stateMutability": "view",
      "type": "function"
    },
    {
      "inputs": [],
      "name": "getPoolAmount",
      "outputs": [
        {
          "internalType": "uint256",
          "name": "",
          "type": "uint256"
        }
      ],
      "stateMutability": "view",
      "type": "function"
    },
    {
      "inputs": [
        {
          "internalType": "address",
          "name": "_user",
          "type": "address"
        }
      ],
      "name": "getUserPools",
      "outputs": [
        {
          "components": [
            {
              "internalType": "uint256",
              "name": "poolId",
              "type": "uint256"
            },
            {
              "internalType": "string",
              "name": "poolName",
              "type": "string"
            },
            {
              "internalType": "uint256",
              "name": "depositAmount",
              "type": "uint256"
            },
            {
              "internalType": "uint256",
              "name": "depositTotal",
              "type": "uint256"
            },
            {
              "internalType": "address[]",
              "name": "members",
              "type": "address[]"
            },
            {
              "internalType": "bool",
              "name": "isActive",
              "type": "bool"
            },
            {
              "internalType": "uint256",
              "name": "round",
              "type": "uint256"
            }
          ],
          "internalType": "struct InvestmentPool.Pool[]",
          "name": "",
          "type": "tuple[]"
        }
      ],
      "stateMutability": "view",
      "type": "function"
    }
  ],
  "bytecode": "0x6080604052336000806101000a81548173ffffffffffffffffffffffffffffffffffffffff021916908373ffffffffffffffffffffffffffffffffffffffff16021790555034801561005057600080fd5b50336000806101000a81548173ffffffffffffffffffffffffffffffffffffffff021916908373ffffffffffffffffffffffffffffffffffffffff160217905550611185806100a06000396000f3fe6080604052600436106100595760003560e01c80631064aa55146100655780634ab4ba42146100a7578063627dc365146100d25780638da5cb5b1461010f5780639816af581461013a578063b1219e731461017757610060565b3661006057005b600080fd5b34801561007157600080fd5b5061008c60048036038101906100879190610a91565b6101b4565b60405161009e96959493929190610e90565b60405180910390f35b3480156100b357600080fd5b506100bc6102a2565b6040516100c99190610e75565b60405180910390f35b3480156100de57600080fd5b506100f960048036038101906100f49190610acd565b6102a7565b6040516101069190610e75565b60405180910390f35b34801561011b57600080fd5b50610124610567565b6040516101319190610e16565b60405180910390f35b34801561014657600080fd5b50610161600480360381019061015c9190610a68565b61058b565b60405161016e9190610e53565b60405180910390f35b34801561018357600080fd5b5061019e60048036038101906101999190610b21565b610792565b6040516101ab9190610e31565b60405180910390f35b600360205281600052604060002081815481106101d057600080fd5b9060005260206000209060070201600091509150508060000154908060010180546101fa90611080565b80601f016020809104026020016040519081016040528092919081815260200182805461022690611080565b80156102735780601f1061024857610100808354040283529160200191610273565b820191906000526020600020905b81548152906001019060200180831161025657829003601f168201915b5050505050908060020154908060030154908060050160009054906101000a900460ff16908060060154905086565b600090565b60006102b161083c565b8381608001819052508281604001818152505060018160a0019015159081151581525050600360003373ffffffffffffffffffffffffffffffffffffffff1673ffffffffffffffffffffffffffffffffffffffff16815260200190815260200160002081908060018154018082558091505060019003906000526020600020906007020160009091909190915060008201518160000155602082015181600101908051906020019061036492919061087b565b5060408201518160020155606082015181600301556080820151816004019080519060200190610395929190610901565b5060a08201518160050160006101000a81548160ff02191690831515021790555060c082015181600601555050600281908060018154018082558091505060019003906000526020600020906007020160009091909190915060008201518160000155602082015181600101908051906020019061041492919061087b565b5060408201518160020155606082015181600301556080820151816004019080519060200190610445929190610901565b5060a08201518160050160006101000a81548160ff02191690831515021790555060c0820151816006015550506002805490508160000181815250508060016000836000015181526020019081526020016000206000820151816000015560208201518160010190805190602001906104bf92919061087b565b50604082015181600201556060820151816003015560808201518160040190805190602001906104f0929190610901565b5060a08201518160050160006101000a81548160ff02191690831515021790555060c082015181600601559050507f6365eb8c1a7114707e6d989768d040b6f3c28e1d6b139c358956b97921e3a20f81600001516040516105519190610e75565b60405180910390a1806000015191505092915050565b60008054906101000a900473ffffffffffffffffffffffffffffffffffffffff1681565b60606000600360008473ffffffffffffffffffffffffffffffffffffffff1673ffffffffffffffffffffffffffffffffffffffff168152602001908152602001600020805480602002602001604051908101604052809291908181526020016000905b8282101561078357838290600052602060002090600702016040518060e00160405290816000820154815260200160018201805461062b90611080565b80601f016020809104026020016040519081016040528092919081815260200182805461065790611080565b80156106a45780601f10610679576101008083540402835291602001916106a4565b820191906000526020600020905b81548152906001019060200180831161068757829003601f168201915b5050505050815260200160028201548152602001600382015481526020016004820180548060200260200160405190810160405280929190818152602001828054801561074657602002820191906000526020600020905b8160009054906101000a900473ffffffffffffffffffffffffffffffffffffffff1673ffffffffffffffffffffffffffffffffffffffff16815260200190600101908083116106fc575b505050505081526020016005820160009054906101000a900460ff16151515158152602001600682015481525050815260200190600101906105ee565b50505050905080915050919050565b606060006001600084815260200190815260200160002060040180548060200260200160405190810160405280929190818152602001828054801561082c57602002820191906000526020600020905b8160009054906101000a900473ffffffffffffffffffffffffffffffffffffffff1673ffffffffffffffffffffffffffffffffffffffff16815260200190600101908083116107e2575b5050505050905080915050919050565b6040518060e001604052806000815260200160608152602001600081526020016000815260200160608152602001600015158152602001600081525090565b82805461088790611080565b90600052602060002090601f0160209004810192826108a957600085556108f0565b82601f106108c257805160ff19168380011785556108f0565b828001600101855582156108f0579182015b828111156108ef5782518255916020019190600101906108d4565b5b5090506108fd919061098b565b5090565b82805482825590600052602060002090810192821561097a579160200282015b828111156109795782518260006101000a81548173ffffffffffffffffffffffffffffffffffffffff021916908373ffffffffffffffffffffffffffffffffffffffff16021790555091602001919060010190610921565b5b509050610987919061098b565b5090565b5b808211156109a457600081600090555060010161098c565b5090565b60006109bb6109b684610f29565b610ef8565b905080838252602082019050828560208602820111156109da57600080fd5b60005b85811015610a0a57816109f08882610a14565b8452602084019350602083019250506001810190506109dd565b5050509392505050565b600081359050610a2381611121565b92915050565b600082601f830112610a3a57600080fd5b8135610a4a8482602086016109a8565b91505092915050565b600081359050610a6281611138565b92915050565b600060208284031215610a7a57600080fd5b6000610a8884828501610a14565b91505092915050565b60008060408385031215610aa457600080fd5b6000610ab285828601610a14565b9250506020610ac385828601610a53565b9150509250929050565b60008060408385031215610ae057600080fd5b600083013567ffffffffffffffff811115610afa57600080fd5b610b0685828601610a29565b9250506020610b1785828601610a53565b9150509250929050565b600060208284031215610b3357600080fd5b6000610b4184828501610a53565b91505092915050565b6000610b568383610b76565b60208301905092915050565b6000610b6e8383610d55565b905092915050565b610b7f81611005565b82525050565b610b8e81611005565b82525050565b6000610b9f82610f75565b610ba98185610fb0565b9350610bb483610f55565b8060005b83811015610be5578151610bcc8882610b4a565b9750610bd783610f96565b925050600181019050610bb8565b5085935050505092915050565b6000610bfd82610f75565b610c078185610fc1565b9350610c1283610f55565b8060005b83811015610c43578151610c2a8882610b4a565b9750610c3583610f96565b925050600181019050610c16565b5085935050505092915050565b6000610c5b82610f80565b610c658185610fd2565b935083602082028501610c7785610f65565b8060005b85811015610cb35784840389528151610c948582610b62565b9450610c9f83610fa3565b925060208a01995050600181019050610c7b565b50829750879550505050505092915050565b610cce81611017565b82525050565b610cdd81611017565b82525050565b6000610cee82610f8b565b610cf88185610fe3565b9350610d0881856020860161104d565b610d1181611110565b840191505092915050565b6000610d2782610f8b565b610d318185610ff4565b9350610d4181856020860161104d565b610d4a81611110565b840191505092915050565b600060e083016000830151610d6d6000860182610df8565b5060208301518482036020860152610d858282610ce3565b9150506040830151610d9a6040860182610df8565b506060830151610dad6060860182610df8565b5060808301518482036080860152610dc58282610b94565b91505060a0830151610dda60a0860182610cc5565b5060c0830151610ded60c0860182610df8565b508091505092915050565b610e0181611043565b82525050565b610e1081611043565b82525050565b6000602082019050610e2b6000830184610b85565b92915050565b60006020820190508181036000830152610e4b8184610bf2565b905092915050565b60006020820190508181036000830152610e6d8184610c50565b905092915050565b6000602082019050610e8a6000830184610e07565b92915050565b600060c082019050610ea56000830189610e07565b8181036020830152610eb78188610d1c565b9050610ec66040830187610e07565b610ed36060830186610e07565b610ee06080830185610cd4565b610eed60a0830184610e07565b979650505050505050565b6000604051905081810181811067ffffffffffffffff82111715610f1f57610f1e6110e1565b5b8060405250919050565b600067ffffffffffffffff821115610f4457610f436110e1565b5b602082029050602081019050919050565b6000819050602082019050919050565b6000819050602082019050919050565b600081519050919050565b600081519050919050565b600081519050919050565b6000602082019050919050565b6000602082019050919050565b600082825260208201905092915050565b600082825260208201905092915050565b600082825260208201905092915050565b600082825260208201905092915050565b600082825260208201905092915050565b600061101082611023565b9050919050565b60008115159050919050565b600073ffffffffffffffffffffffffffffffffffffffff82169050919050565b6000819050919050565b60005b8381101561106b578082015181840152602081019050611050565b8381111561107a576000848401525b50505050565b6000600282049050600182168061109857607f821691505b602082108114156110ac576110ab6110b2565b5b50919050565b7f4e487b7100000000000000000000000000000000000000000000000000000000600052602260045260246000fd5b7f4e487b7100000000000000000000000000000000000000000000000000000000600052604160045260246000fd5b6000601f19601f8301169050919050565b61112a81611005565b811461113557600080fd5b50565b61114181611043565b811461114c57600080fd5b5056fea2646970667358221220151c8ff0a491367dbe4380ddcf86ad73a21df1adba6998fa799bb36aa18c866964736f6c63430008000033",
  "immutableReferences": {},
  "source": "// SPDX-License-Identifier: MIT\npragma solidity 0.8.0;\n\nimport \"@openzeppelin/contracts/security/PullPayment.sol\";\n\n/**\n * @title Investment Pool\n * @dev Store & retrieve value in a variable\n */\ncontract InvestmentPool {\n\n  struct Pool {\n    uint256 poolId;\n    string poolName;\n    uint256 depositAmount;\n    uint256 depositTotal;\n    address[] members;\n    bool isActive;\n    uint256 round;\n  }\n\n  address public owner = msg.sender;\n  mapping(uint => Pool) poolsById;\n  Pool[] pools;\n  mapping(address => Pool[]) public userPools;\n\n  event poolCreated(uint id);\n\n  constructor() {\n    owner = msg.sender;\n  }\n\n  function createPool(address[] memory _poolMembers, uint256 _depositAmount) public returns(uint256) {\n    Pool memory pool;\n    pool.members = _poolMembers;\n    pool.depositAmount = _depositAmount;\n    pool.isActive = true; \n    userPools[msg.sender].push(pool);\n    pools.push(pool);\n    pool.poolId = pools.length;\n    poolsById[pool.poolId] = pool;\n\n    emit poolCreated(pool.poolId);\n    return pool.poolId;\n  }\n\n  function getPoolMembers(uint256 _poolId) external view returns(address[] memory) {\n    address[] memory _poolMembers = poolsById[_poolId].members;\n    return _poolMembers;\n  }\n\n  // return the amount of funds in the pool\n  function getPoolAmount() public view returns (uint256) {\n    //return poolAmount;\n  }\n\n  function getUserPools(address _user) public view returns (Pool[] memory) {\n    Pool[] memory currentPools = userPools[_user];\n    return currentPools;\n  }\n\n  receive() external payable {\n    //\n  }\n/*\n  function addDepositors(address dep) public {\n    poolMembers[dep] = true;\n    depositors += 1;\n  }\n*/\n  //function depositFunds(address _depositor) external canDeposit(_depositor) {}\n  // pay out only to pool members\n\n  // only pay pool member once\n  //function makePayout(address _depositor) external canWithdraw(_depositor){}\n}",
  "sourcePath": "/Users/allistermckenzie/Documents/blockchain-developer-bootcamp-final-project/contracts/InvestmentPool.sol",
  "compiler": {
    "name": "solc",
    "version": "0.8.0+commit.c7dfd78e.Emscripten.clang"
  },
  "schemaVersion": "3.4.3",
  "updatedAt": "2021-11-19T05:02:25.757Z",
  "devdoc": {
    "details": "Store & retrieve value in a variable",
    "kind": "dev",
    "methods": {},
    "title": "Investment Pool",
    "version": 1
  },
  "userdoc": {
    "kind": "user",
    "methods": {},
    "version": 1
  }
}