{
  "contractName": "Tickets",
  "abi": [
    {
      "inputs": [
        {
          "internalType": "uint256",
          "name": "maxNftSupply",
          "type": "uint256"
        }
      ],
      "stateMutability": "nonpayable",
      "type": "constructor"
    },
    {
      "anonymous": false,
      "inputs": [
        {
          "indexed": true,
          "internalType": "address",
          "name": "owner",
          "type": "address"
        },
        {
          "indexed": true,
          "internalType": "address",
          "name": "approved",
          "type": "address"
        },
        {
          "indexed": true,
          "internalType": "uint256",
          "name": "tokenId",
          "type": "uint256"
        }
      ],
      "name": "Approval",
      "type": "event"
    },
    {
      "anonymous": false,
      "inputs": [
        {
          "indexed": true,
          "internalType": "address",
          "name": "owner",
          "type": "address"
        },
        {
          "indexed": true,
          "internalType": "address",
          "name": "operator",
          "type": "address"
        },
        {
          "indexed": false,
          "internalType": "bool",
          "name": "approved",
          "type": "bool"
        }
      ],
      "name": "ApprovalForAll",
      "type": "event"
    },
    {
      "anonymous": false,
      "inputs": [
        {
          "indexed": true,
          "internalType": "address",
          "name": "previousOwner",
          "type": "address"
        },
        {
          "indexed": true,
          "internalType": "address",
          "name": "newOwner",
          "type": "address"
        }
      ],
      "name": "OwnershipTransferred",
      "type": "event"
    },
    {
      "anonymous": false,
      "inputs": [
        {
          "indexed": false,
          "internalType": "address",
          "name": "account",
          "type": "address"
        }
      ],
      "name": "Paused",
      "type": "event"
    },
    {
      "anonymous": false,
      "inputs": [
        {
          "indexed": true,
          "internalType": "address",
          "name": "from",
          "type": "address"
        },
        {
          "indexed": true,
          "internalType": "address",
          "name": "to",
          "type": "address"
        },
        {
          "indexed": true,
          "internalType": "uint256",
          "name": "tokenId",
          "type": "uint256"
        }
      ],
      "name": "Transfer",
      "type": "event"
    },
    {
      "anonymous": false,
      "inputs": [
        {
          "indexed": false,
          "internalType": "address",
          "name": "account",
          "type": "address"
        }
      ],
      "name": "Unpaused",
      "type": "event"
    },
    {
      "anonymous": false,
      "inputs": [],
      "name": "ticketBought",
      "type": "event"
    },
    {
      "anonymous": false,
      "inputs": [],
      "name": "ticketTransfered",
      "type": "event"
    },
    {
      "inputs": [],
      "name": "MAX_TICKETS",
      "outputs": [
        {
          "internalType": "uint256",
          "name": "",
          "type": "uint256"
        }
      ],
      "stateMutability": "view",
      "type": "function",
      "constant": true
    },
    {
      "inputs": [
        {
          "internalType": "address",
          "name": "to",
          "type": "address"
        },
        {
          "internalType": "uint256",
          "name": "tokenId",
          "type": "uint256"
        }
      ],
      "name": "approve",
      "outputs": [],
      "stateMutability": "nonpayable",
      "type": "function"
    },
    {
      "inputs": [
        {
          "internalType": "address",
          "name": "owner",
          "type": "address"
        }
      ],
      "name": "balanceOf",
      "outputs": [
        {
          "internalType": "uint256",
          "name": "",
          "type": "uint256"
        }
      ],
      "stateMutability": "view",
      "type": "function",
      "constant": true
    },
    {
      "inputs": [
        {
          "internalType": "uint256",
          "name": "tokenId",
          "type": "uint256"
        }
      ],
      "name": "burn",
      "outputs": [],
      "stateMutability": "nonpayable",
      "type": "function"
    },
    {
      "inputs": [
        {
          "internalType": "uint256",
          "name": "tokenId",
          "type": "uint256"
        }
      ],
      "name": "getApproved",
      "outputs": [
        {
          "internalType": "address",
          "name": "",
          "type": "address"
        }
      ],
      "stateMutability": "view",
      "type": "function",
      "constant": true
    },
    {
      "inputs": [
        {
          "internalType": "address",
          "name": "owner",
          "type": "address"
        },
        {
          "internalType": "address",
          "name": "operator",
          "type": "address"
        }
      ],
      "name": "isApprovedForAll",
      "outputs": [
        {
          "internalType": "bool",
          "name": "",
          "type": "bool"
        }
      ],
      "stateMutability": "view",
      "type": "function",
      "constant": true
    },
    {
      "inputs": [],
      "name": "maxTicketPurchase",
      "outputs": [
        {
          "internalType": "uint256",
          "name": "",
          "type": "uint256"
        }
      ],
      "stateMutability": "view",
      "type": "function",
      "constant": true
    },
    {
      "inputs": [],
      "name": "name",
      "outputs": [
        {
          "internalType": "string",
          "name": "",
          "type": "string"
        }
      ],
      "stateMutability": "view",
      "type": "function",
      "constant": true
    },
    {
      "inputs": [],
      "name": "owner",
      "outputs": [
        {
          "internalType": "address",
          "name": "",
          "type": "address"
        }
      ],
      "stateMutability": "view",
      "type": "function",
      "constant": true
    },
    {
      "inputs": [
        {
          "internalType": "uint256",
          "name": "tokenId",
          "type": "uint256"
        }
      ],
      "name": "ownerOf",
      "outputs": [
        {
          "internalType": "address",
          "name": "",
          "type": "address"
        }
      ],
      "stateMutability": "view",
      "type": "function",
      "constant": true
    },
    {
      "inputs": [],
      "name": "paused",
      "outputs": [
        {
          "internalType": "bool",
          "name": "",
          "type": "bool"
        }
      ],
      "stateMutability": "view",
      "type": "function",
      "constant": true
    },
    {
      "inputs": [],
      "name": "renounceOwnership",
      "outputs": [],
      "stateMutability": "nonpayable",
      "type": "function"
    },
    {
      "inputs": [
        {
          "internalType": "address",
          "name": "from",
          "type": "address"
        },
        {
          "internalType": "address",
          "name": "to",
          "type": "address"
        },
        {
          "internalType": "uint256",
          "name": "tokenId",
          "type": "uint256"
        }
      ],
      "name": "safeTransferFrom",
      "outputs": [],
      "stateMutability": "nonpayable",
      "type": "function"
    },
    {
      "inputs": [
        {
          "internalType": "address",
          "name": "from",
          "type": "address"
        },
        {
          "internalType": "address",
          "name": "to",
          "type": "address"
        },
        {
          "internalType": "uint256",
          "name": "tokenId",
          "type": "uint256"
        },
        {
          "internalType": "bytes",
          "name": "_data",
          "type": "bytes"
        }
      ],
      "name": "safeTransferFrom",
      "outputs": [],
      "stateMutability": "nonpayable",
      "type": "function"
    },
    {
      "inputs": [
        {
          "internalType": "address",
          "name": "operator",
          "type": "address"
        },
        {
          "internalType": "bool",
          "name": "approved",
          "type": "bool"
        }
      ],
      "name": "setApprovalForAll",
      "outputs": [],
      "stateMutability": "nonpayable",
      "type": "function"
    },
    {
      "inputs": [],
      "name": "symbol",
      "outputs": [
        {
          "internalType": "string",
          "name": "",
          "type": "string"
        }
      ],
      "stateMutability": "view",
      "type": "function",
      "constant": true
    },
    {
      "inputs": [],
      "name": "ticketPrice",
      "outputs": [
        {
          "internalType": "uint256",
          "name": "",
          "type": "uint256"
        }
      ],
      "stateMutability": "view",
      "type": "function",
      "constant": true
    },
    {
      "inputs": [
        {
          "internalType": "uint256",
          "name": "index",
          "type": "uint256"
        }
      ],
      "name": "tokenByIndex",
      "outputs": [
        {
          "internalType": "uint256",
          "name": "",
          "type": "uint256"
        }
      ],
      "stateMutability": "view",
      "type": "function",
      "constant": true
    },
    {
      "inputs": [
        {
          "internalType": "address",
          "name": "owner",
          "type": "address"
        },
        {
          "internalType": "uint256",
          "name": "index",
          "type": "uint256"
        }
      ],
      "name": "tokenOfOwnerByIndex",
      "outputs": [
        {
          "internalType": "uint256",
          "name": "",
          "type": "uint256"
        }
      ],
      "stateMutability": "view",
      "type": "function",
      "constant": true
    },
    {
      "inputs": [
        {
          "internalType": "uint256",
          "name": "tokenId",
          "type": "uint256"
        }
      ],
      "name": "tokenURI",
      "outputs": [
        {
          "internalType": "string",
          "name": "",
          "type": "string"
        }
      ],
      "stateMutability": "view",
      "type": "function",
      "constant": true
    },
    {
      "inputs": [
        {
          "internalType": "address",
          "name": "from",
          "type": "address"
        },
        {
          "internalType": "address",
          "name": "to",
          "type": "address"
        },
        {
          "internalType": "uint256",
          "name": "tokenId",
          "type": "uint256"
        }
      ],
      "name": "transferFrom",
      "outputs": [],
      "stateMutability": "nonpayable",
      "type": "function"
    },
    {
      "inputs": [
        {
          "internalType": "address",
          "name": "newOwner",
          "type": "address"
        }
      ],
      "name": "transferOwnership",
      "outputs": [],
      "stateMutability": "nonpayable",
      "type": "function"
    },
    {
      "inputs": [],
      "name": "pause",
      "outputs": [],
      "stateMutability": "nonpayable",
      "type": "function"
    },
    {
      "inputs": [],
      "name": "unpause",
      "outputs": [],
      "stateMutability": "nonpayable",
      "type": "function"
    },
    {
      "inputs": [],
      "name": "totalSupply",
      "outputs": [
        {
          "internalType": "uint256",
          "name": "",
          "type": "uint256"
        }
      ],
      "stateMutability": "view",
      "type": "function",
      "constant": true
    },
    {
      "inputs": [
        {
          "internalType": "address",
          "name": "to",
          "type": "address"
        }
      ],
      "name": "safeMint",
      "outputs": [],
      "stateMutability": "nonpayable",
      "type": "function"
    },
    {
      "inputs": [
        {
          "internalType": "uint256",
          "name": "reserves",
          "type": "uint256"
        }
      ],
      "name": "reserveTickets",
      "outputs": [],
      "stateMutability": "nonpayable",
      "type": "function"
    },
    {
      "inputs": [],
      "name": "withdraw",
      "outputs": [],
      "stateMutability": "nonpayable",
      "type": "function"
    },
    {
      "inputs": [
        {
          "internalType": "uint256",
          "name": "numberOfTokens",
          "type": "uint256"
        }
      ],
      "name": "buyTickets",
      "outputs": [],
      "stateMutability": "payable",
      "type": "function",
      "payable": true
    },
    {
      "inputs": [
        {
          "internalType": "bytes4",
          "name": "interfaceId",
          "type": "bytes4"
        }
      ],
      "name": "supportsInterface",
      "outputs": [
        {
          "internalType": "bool",
          "name": "",
          "type": "bool"
        }
      ],
      "stateMutability": "view",
      "type": "function",
      "constant": true
    }
  ],
  "bytecode": "0x60806040523480156200001157600080fd5b506040516200478a3803806200478a8339818101604052810190620000379190620002de565b6040518060400160405280600781526020017f5469636b657473000000000000000000000000000000000000000000000000008152506040518060400160405280600481526020017f54434b54000000000000000000000000000000000000000000000000000000008152508160009080519060200190620000bb929190620001ee565b508060019080519060200190620000d4929190620001ee565b5050506000600a60006101000a81548160ff02191690831515021790555062000112620001066200012060201b60201c565b6200012860201b60201c565b80600c819055505062000375565b600033905090565b6000600a60019054906101000a900473ffffffffffffffffffffffffffffffffffffffff16905081600a60016101000a81548173ffffffffffffffffffffffffffffffffffffffff021916908373ffffffffffffffffffffffffffffffffffffffff1602179055508173ffffffffffffffffffffffffffffffffffffffff168173ffffffffffffffffffffffffffffffffffffffff167f8be0079c531659141344cd1fd0a4f28419497f9722a3daafe3b4186f6b6457e060405160405180910390a35050565b828054620001fc906200033f565b90600052602060002090601f0160209004810192826200022057600085556200026c565b82601f106200023b57805160ff19168380011785556200026c565b828001600101855582156200026c579182015b828111156200026b5782518255916020019190600101906200024e565b5b5090506200027b91906200027f565b5090565b5b808211156200029a57600081600090555060010162000280565b5090565b600080fd5b6000819050919050565b620002b881620002a3565b8114620002c457600080fd5b50565b600081519050620002d881620002ad565b92915050565b600060208284031215620002f757620002f66200029e565b5b60006200030784828501620002c7565b91505092915050565b7f4e487b7100000000000000000000000000000000000000000000000000000000600052602260045260246000fd5b600060028204905060018216806200035857607f821691505b602082108114156200036f576200036e62000310565b5b50919050565b61440580620003856000396000f3fe6080604052600436106101cd5760003560e01c806359a0f9e3116100f757806395d89b4111610095578063d42b7afd11610064578063d42b7afd14610641578063e985e9c51461066a578063f2fde38b146106a7578063fca846dc146106d0576101cd565b806395d89b4114610587578063a22cb465146105b2578063b88d4fde146105db578063c87b56dd14610604576101cd565b806370a08231116100d157806370a08231146104f1578063715018a61461052e5780638456cb59146105455780638da5cb5b1461055c576101cd565b806359a0f9e31461045e5780635c975abb146104895780636352211e146104b4576101cd565b80632f3666371161016f57806340d097c31161013e57806340d097c3146103a657806342842e0e146103cf57806342966c68146103f85780634f6ccce714610421576101cd565b80632f3666371461031f5780632f745c591461033b5780633ccfd60b146103785780633f4ba83a1461038f576101cd565b8063095ea7b3116101ab578063095ea7b3146102775780631209b1f6146102a057806318160ddd146102cb57806323b872dd146102f6576101cd565b806301ffc9a7146101d257806306fdde031461020f578063081812fc1461023a575b600080fd5b3480156101de57600080fd5b506101f960048036038101906101f49190612be1565b6106fb565b6040516102069190612c29565b60405180910390f35b34801561021b57600080fd5b5061022461070d565b6040516102319190612cdd565b60405180910390f35b34801561024657600080fd5b50610261600480360381019061025c9190612d35565b61079f565b60405161026e9190612da3565b60405180910390f35b34801561028357600080fd5b5061029e60048036038101906102999190612dea565b610824565b005b3480156102ac57600080fd5b506102b561093c565b6040516102c29190612e39565b60405180910390f35b3480156102d757600080fd5b506102e0610947565b6040516102ed9190612e39565b60405180910390f35b34801561030257600080fd5b5061031d60048036038101906103189190612e54565b610951565b005b61033960048036038101906103349190612d35565b6109b1565b005b34801561034757600080fd5b50610362600480360381019061035d9190612dea565b610b5c565b60405161036f9190612e39565b60405180910390f35b34801561038457600080fd5b5061038d610c01565b005b34801561039b57600080fd5b506103a4610ccc565b005b3480156103b257600080fd5b506103cd60048036038101906103c89190612ea7565b610d52565b005b3480156103db57600080fd5b506103f660048036038101906103f19190612e54565b610df4565b005b34801561040457600080fd5b5061041f600480360381019061041a9190612d35565b610e14565b005b34801561042d57600080fd5b5061044860048036038101906104439190612d35565b610e70565b6040516104559190612e39565b60405180910390f35b34801561046a57600080fd5b50610473610ee1565b6040516104809190612e39565b60405180910390f35b34801561049557600080fd5b5061049e610ee6565b6040516104ab9190612c29565b60405180910390f35b3480156104c057600080fd5b506104db60048036038101906104d69190612d35565b610efd565b6040516104e89190612da3565b60405180910390f35b3480156104fd57600080fd5b5061051860048036038101906105139190612ea7565b610faf565b6040516105259190612e39565b60405180910390f35b34801561053a57600080fd5b50610543611067565b005b34801561055157600080fd5b5061055a6110ef565b005b34801561056857600080fd5b50610571611175565b60405161057e9190612da3565b60405180910390f35b34801561059357600080fd5b5061059c61119f565b6040516105a99190612cdd565b60405180910390f35b3480156105be57600080fd5b506105d960048036038101906105d49190612f00565b611231565b005b3480156105e757600080fd5b5061060260048036038101906105fd9190613075565b611247565b005b34801561061057600080fd5b5061062b60048036038101906106269190612d35565b6112a9565b6040516106389190612cdd565b60405180910390f35b34801561064d57600080fd5b5061066860048036038101906106639190612d35565b611350565b005b34801561067657600080fd5b50610691600480360381019061068c91906130f8565b6114a3565b60405161069e9190612c29565b60405180910390f35b3480156106b357600080fd5b506106ce60048036038101906106c99190612ea7565b611537565b005b3480156106dc57600080fd5b506106e561162f565b6040516106f29190612e39565b60405180910390f35b600061070682611635565b9050919050565b60606000805461071c90613167565b80601f016020809104026020016040519081016040528092919081815260200182805461074890613167565b80156107955780601f1061076a57610100808354040283529160200191610795565b820191906000526020600020905b81548152906001019060200180831161077857829003601f168201915b5050505050905090565b60006107aa826116af565b6107e9576040517f08c379a00000000000000000000000000000000000000000000000000000000081526004016107e09061320b565b60405180910390fd5b6004600083815260200190815260200160002060009054906101000a900473ffffffffffffffffffffffffffffffffffffffff169050919050565b600061082f82610efd565b90508073ffffffffffffffffffffffffffffffffffffffff168373ffffffffffffffffffffffffffffffffffffffff1614156108a0576040517f08c379a00000000000000000000000000000000000000000000000000000000081526004016108979061329d565b60405180910390fd5b8073ffffffffffffffffffffffffffffffffffffffff166108bf61171b565b73ffffffffffffffffffffffffffffffffffffffff1614806108ee57506108ed816108e861171b565b6114a3565b5b61092d576040517f08c379a00000000000000000000000000000000000000000000000000000000081526004016109249061332f565b60405180910390fd5b6109378383611723565b505050565b662386f26fc1000081565b6000600d54905090565b61096261095c61171b565b826117dc565b6109a1576040517f08c379a0000000000000000000000000000000000000000000000000000000008152600401610998906133c1565b60405180910390fd5b6109ac8383836118ba565b505050565b6109b9610ee6565b156109f9576040517f08c379a00000000000000000000000000000000000000000000000000000000081526004016109f090613453565b60405180910390fd5b6004811115610a3d576040517f08c379a0000000000000000000000000000000000000000000000000000000008152600401610a34906134e5565b60405180910390fd5b600c54610a5a82610a4c610947565b611b1690919063ffffffff16565b1115610a9b576040517f08c379a0000000000000000000000000000000000000000000000000000000008152600401610a9290613577565b60405180910390fd5b34610ab682662386f26fc10000611b2c90919063ffffffff16565b1115610af7576040517f08c379a0000000000000000000000000000000000000000000000000000000008152600401610aee90613609565b60405180910390fd5b60005b81811015610b58576000610b0c610947565b9050600c54610b19610947565b1015610b44576001600d6000828254610b329190613658565b92505081905550610b433382611b42565b5b508080610b50906136ae565b915050610afa565b5050565b6000610b6783610faf565b8210610ba8576040517f08c379a0000000000000000000000000000000000000000000000000000000008152600401610b9f90613769565b60405180910390fd5b600660008473ffffffffffffffffffffffffffffffffffffffff1673ffffffffffffffffffffffffffffffffffffffff168152602001908152602001600020600083815260200190815260200160002054905092915050565b610c0961171b565b73ffffffffffffffffffffffffffffffffffffffff16610c27611175565b73ffffffffffffffffffffffffffffffffffffffff1614610c7d576040517f08c379a0000000000000000000000000000000000000000000000000000000008152600401610c74906137d5565b60405180910390fd5b60004790503373ffffffffffffffffffffffffffffffffffffffff166108fc829081150290604051600060405180830381858888f19350505050158015610cc8573d6000803e3d6000fd5b5050565b610cd461171b565b73ffffffffffffffffffffffffffffffffffffffff16610cf2611175565b73ffffffffffffffffffffffffffffffffffffffff1614610d48576040517f08c379a0000000000000000000000000000000000000000000000000000000008152600401610d3f906137d5565b60405180910390fd5b610d50611b60565b565b610d5a61171b565b73ffffffffffffffffffffffffffffffffffffffff16610d78611175565b73ffffffffffffffffffffffffffffffffffffffff1614610dce576040517f08c379a0000000000000000000000000000000000000000000000000000000008152600401610dc5906137d5565b60405180910390fd5b6000610dda600b611c02565b9050610de6600b611c10565b610df08282611b42565b5050565b610e0f83838360405180602001604052806000815250611247565b505050565b610e25610e1f61171b565b826117dc565b610e64576040517f08c379a0000000000000000000000000000000000000000000000000000000008152600401610e5b90613867565b60405180910390fd5b610e6d81611c26565b50565b6000610e7a611d37565b8210610ebb576040517f08c379a0000000000000000000000000000000000000000000000000000000008152600401610eb2906138f9565b60405180910390fd5b60088281548110610ecf57610ece613919565b5b90600052602060002001549050919050565b600481565b6000600a60009054906101000a900460ff16905090565b6000806002600084815260200190815260200160002060009054906101000a900473ffffffffffffffffffffffffffffffffffffffff169050600073ffffffffffffffffffffffffffffffffffffffff168173ffffffffffffffffffffffffffffffffffffffff161415610fa6576040517f08c379a0000000000000000000000000000000000000000000000000000000008152600401610f9d906139ba565b60405180910390fd5b80915050919050565b60008073ffffffffffffffffffffffffffffffffffffffff168273ffffffffffffffffffffffffffffffffffffffff161415611020576040517f08c379a000000000000000000000000000000000000000000000000000000000815260040161101790613a4c565b60405180910390fd5b600360008373ffffffffffffffffffffffffffffffffffffffff1673ffffffffffffffffffffffffffffffffffffffff168152602001908152602001600020549050919050565b61106f61171b565b73ffffffffffffffffffffffffffffffffffffffff1661108d611175565b73ffffffffffffffffffffffffffffffffffffffff16146110e3576040517f08c379a00000000000000000000000000000000000000000000000000000000081526004016110da906137d5565b60405180910390fd5b6110ed6000611d44565b565b6110f761171b565b73ffffffffffffffffffffffffffffffffffffffff16611115611175565b73ffffffffffffffffffffffffffffffffffffffff161461116b576040517f08c379a0000000000000000000000000000000000000000000000000000000008152600401611162906137d5565b60405180910390fd5b611173611e0a565b565b6000600a60019054906101000a900473ffffffffffffffffffffffffffffffffffffffff16905090565b6060600180546111ae90613167565b80601f01602080910402602001604051908101604052809291908181526020018280546111da90613167565b80156112275780601f106111fc57610100808354040283529160200191611227565b820191906000526020600020905b81548152906001019060200180831161120a57829003601f168201915b5050505050905090565b61124361123c61171b565b8383611ead565b5050565b61125861125261171b565b836117dc565b611297576040517f08c379a000000000000000000000000000000000000000000000000000000000815260040161128e906133c1565b60405180910390fd5b6112a38484848461201a565b50505050565b60606112b4826116af565b6112f3576040517f08c379a00000000000000000000000000000000000000000000000000000000081526004016112ea90613ade565b60405180910390fd5b60006112fd612076565b9050600081511161131d5760405180602001604052806000815250611348565b806113278461208d565b604051602001611338929190613b3a565b6040516020818303038152906040525b915050919050565b61135861171b565b73ffffffffffffffffffffffffffffffffffffffff16611376611175565b73ffffffffffffffffffffffffffffffffffffffff16146113cc576040517f08c379a00000000000000000000000000000000000000000000000000000000081526004016113c3906137d5565b60405180910390fd5b6014811061140f576040517f08c379a000000000000000000000000000000000000000000000000000000000815260040161140690613bd0565b60405180910390fd5b6000611419610947565b9050600c54818361142a9190613658565b111561146b576040517f08c379a000000000000000000000000000000000000000000000000000000000815260040161146290613c88565b60405180910390fd5b60005b8281101561149e5761148b3382846114869190613658565b611b42565b8080611496906136ae565b91505061146e565b505050565b6000600560008473ffffffffffffffffffffffffffffffffffffffff1673ffffffffffffffffffffffffffffffffffffffff16815260200190815260200160002060008373ffffffffffffffffffffffffffffffffffffffff1673ffffffffffffffffffffffffffffffffffffffff16815260200190815260200160002060009054906101000a900460ff16905092915050565b61153f61171b565b73ffffffffffffffffffffffffffffffffffffffff1661155d611175565b73ffffffffffffffffffffffffffffffffffffffff16146115b3576040517f08c379a00000000000000000000000000000000000000000000000000000000081526004016115aa906137d5565b60405180910390fd5b600073ffffffffffffffffffffffffffffffffffffffff168173ffffffffffffffffffffffffffffffffffffffff161415611623576040517f08c379a000000000000000000000000000000000000000000000000000000000815260040161161a90613d1a565b60405180910390fd5b61162c81611d44565b50565b600c5481565b60007f780e9d63000000000000000000000000000000000000000000000000000000007bffffffffffffffffffffffffffffffffffffffffffffffffffffffff1916827bffffffffffffffffffffffffffffffffffffffffffffffffffffffff191614806116a857506116a7826121ee565b5b9050919050565b60008073ffffffffffffffffffffffffffffffffffffffff166002600084815260200190815260200160002060009054906101000a900473ffffffffffffffffffffffffffffffffffffffff1673ffffffffffffffffffffffffffffffffffffffff1614159050919050565b600033905090565b816004600083815260200190815260200160002060006101000a81548173ffffffffffffffffffffffffffffffffffffffff021916908373ffffffffffffffffffffffffffffffffffffffff160217905550808273ffffffffffffffffffffffffffffffffffffffff1661179683610efd565b73ffffffffffffffffffffffffffffffffffffffff167f8c5be1e5ebec7d5bd14f71427d1e84f3dd0314c0f7b2291e5b200ac8c7c3b92560405160405180910390a45050565b60006117e7826116af565b611826576040517f08c379a000000000000000000000000000000000000000000000000000000000815260040161181d90613dac565b60405180910390fd5b600061183183610efd565b90508073ffffffffffffffffffffffffffffffffffffffff168473ffffffffffffffffffffffffffffffffffffffff1614806118a057508373ffffffffffffffffffffffffffffffffffffffff166118888461079f565b73ffffffffffffffffffffffffffffffffffffffff16145b806118b157506118b081856114a3565b5b91505092915050565b8273ffffffffffffffffffffffffffffffffffffffff166118da82610efd565b73ffffffffffffffffffffffffffffffffffffffff1614611930576040517f08c379a000000000000000000000000000000000000000000000000000000000815260040161192790613e3e565b60405180910390fd5b600073ffffffffffffffffffffffffffffffffffffffff168273ffffffffffffffffffffffffffffffffffffffff1614156119a0576040517f08c379a000000000000000000000000000000000000000000000000000000000815260040161199790613ed0565b60405180910390fd5b6119ab8383836122d0565b6119b6600082611723565b6001600360008573ffffffffffffffffffffffffffffffffffffffff1673ffffffffffffffffffffffffffffffffffffffff1681526020019081526020016000206000828254611a069190613ef0565b925050819055506001600360008473ffffffffffffffffffffffffffffffffffffffff1673ffffffffffffffffffffffffffffffffffffffff1681526020019081526020016000206000828254611a5d9190613658565b92505081905550816002600083815260200190815260200160002060006101000a81548173ffffffffffffffffffffffffffffffffffffffff021916908373ffffffffffffffffffffffffffffffffffffffff160217905550808273ffffffffffffffffffffffffffffffffffffffff168473ffffffffffffffffffffffffffffffffffffffff167fddf252ad1be2c89b69c2b068fc378daa952ba7f163c4a11628f55a4df523b3ef60405160405180910390a4505050565b60008183611b249190613658565b905092915050565b60008183611b3a9190613f24565b905092915050565b611b5c828260405180602001604052806000815250612328565b5050565b611b68610ee6565b611ba7576040517f08c379a0000000000000000000000000000000000000000000000000000000008152600401611b9e90613fca565b60405180910390fd5b6000600a60006101000a81548160ff0219169083151502179055507f5db9ee0a495bf2e6ff9c91a7834c1ba4fdd244a5e8aa4e537bd38aeae4b073aa611beb61171b565b604051611bf89190612da3565b60405180910390a1565b600081600001549050919050565b6001816000016000828254019250508190555050565b6000611c3182610efd565b9050611c3f816000846122d0565b611c4a600083611723565b6001600360008373ffffffffffffffffffffffffffffffffffffffff1673ffffffffffffffffffffffffffffffffffffffff1681526020019081526020016000206000828254611c9a9190613ef0565b925050819055506002600083815260200190815260200160002060006101000a81549073ffffffffffffffffffffffffffffffffffffffff021916905581600073ffffffffffffffffffffffffffffffffffffffff168273ffffffffffffffffffffffffffffffffffffffff167fddf252ad1be2c89b69c2b068fc378daa952ba7f163c4a11628f55a4df523b3ef60405160405180910390a45050565b6000600880549050905090565b6000600a60019054906101000a900473ffffffffffffffffffffffffffffffffffffffff16905081600a60016101000a81548173ffffffffffffffffffffffffffffffffffffffff021916908373ffffffffffffffffffffffffffffffffffffffff1602179055508173ffffffffffffffffffffffffffffffffffffffff168173ffffffffffffffffffffffffffffffffffffffff167f8be0079c531659141344cd1fd0a4f28419497f9722a3daafe3b4186f6b6457e060405160405180910390a35050565b611e12610ee6565b15611e52576040517f08c379a0000000000000000000000000000000000000000000000000000000008152600401611e4990614036565b60405180910390fd5b6001600a60006101000a81548160ff0219169083151502179055507f62e78cea01bee320cd4e420270b5ea74000d11b0c9f74754ebdbfc544b05a258611e9661171b565b604051611ea39190612da3565b60405180910390a1565b8173ffffffffffffffffffffffffffffffffffffffff168373ffffffffffffffffffffffffffffffffffffffff161415611f1c576040517f08c379a0000000000000000000000000000000000000000000000000000000008152600401611f13906140a2565b60405180910390fd5b80600560008573ffffffffffffffffffffffffffffffffffffffff1673ffffffffffffffffffffffffffffffffffffffff16815260200190815260200160002060008473ffffffffffffffffffffffffffffffffffffffff1673ffffffffffffffffffffffffffffffffffffffff16815260200190815260200160002060006101000a81548160ff0219169083151502179055508173ffffffffffffffffffffffffffffffffffffffff168373ffffffffffffffffffffffffffffffffffffffff167f17307eab39ab6107e8899845ad3d59bd9653f200f220920489ca2b5937696c318360405161200d9190612c29565b60405180910390a3505050565b6120258484846118ba565b61203184848484612383565b612070576040517f08c379a000000000000000000000000000000000000000000000000000000000815260040161206790614134565b60405180910390fd5b50505050565b606060405180602001604052806000815250905090565b606060008214156120d5576040518060400160405280600181526020017f300000000000000000000000000000000000000000000000000000000000000081525090506121e9565b600082905060005b600082146121075780806120f0906136ae565b915050600a826121009190614183565b91506120dd565b60008167ffffffffffffffff81111561212357612122612f4a565b5b6040519080825280601f01601f1916602001820160405280156121555781602001600182028036833780820191505090505b5090505b600085146121e25760018261216e9190613ef0565b9150600a8561217d91906141b4565b60306121899190613658565b60f81b81838151811061219f5761219e613919565b5b60200101907effffffffffffffffffffffffffffffffffffffffffffffffffffffffffffff1916908160001a905350600a856121db9190614183565b9450612159565b8093505050505b919050565b60007f80ac58cd000000000000000000000000000000000000000000000000000000007bffffffffffffffffffffffffffffffffffffffffffffffffffffffff1916827bffffffffffffffffffffffffffffffffffffffffffffffffffffffff191614806122b957507f5b5e139f000000000000000000000000000000000000000000000000000000007bffffffffffffffffffffffffffffffffffffffffffffffffffffffff1916827bffffffffffffffffffffffffffffffffffffffffffffffffffffffff1916145b806122c957506122c88261250b565b5b9050919050565b6122d8610ee6565b15612318576040517f08c379a000000000000000000000000000000000000000000000000000000000815260040161230f90614036565b60405180910390fd5b612323838383612575565b505050565b6123328383612689565b61233f6000848484612383565b61237e576040517f08c379a000000000000000000000000000000000000000000000000000000000815260040161237590614134565b60405180910390fd5b505050565b60006123a48473ffffffffffffffffffffffffffffffffffffffff16612857565b156124fe578373ffffffffffffffffffffffffffffffffffffffff1663150b7a026123cd61171b565b8786866040518563ffffffff1660e01b81526004016123ef949392919061423a565b6020604051808303816000875af192505050801561242b57506040513d601f19601f82011682018060405250810190612428919061429b565b60015b6124ae573d806000811461245b576040519150601f19603f3d011682016040523d82523d6000602084013e612460565b606091505b506000815114156124a6576040517f08c379a000000000000000000000000000000000000000000000000000000000815260040161249d90614134565b60405180910390fd5b805181602001fd5b63150b7a0260e01b7bffffffffffffffffffffffffffffffffffffffffffffffffffffffff1916817bffffffffffffffffffffffffffffffffffffffffffffffffffffffff191614915050612503565b600190505b949350505050565b60007f01ffc9a7000000000000000000000000000000000000000000000000000000007bffffffffffffffffffffffffffffffffffffffffffffffffffffffff1916827bffffffffffffffffffffffffffffffffffffffffffffffffffffffff1916149050919050565b61258083838361286a565b600073ffffffffffffffffffffffffffffffffffffffff168373ffffffffffffffffffffffffffffffffffffffff1614156125c3576125be8161286f565b612602565b8173ffffffffffffffffffffffffffffffffffffffff168373ffffffffffffffffffffffffffffffffffffffff16146126015761260083826128b8565b5b5b600073ffffffffffffffffffffffffffffffffffffffff168273ffffffffffffffffffffffffffffffffffffffff1614156126455761264081612a25565b612684565b8273ffffffffffffffffffffffffffffffffffffffff168273ffffffffffffffffffffffffffffffffffffffff1614612683576126828282612af6565b5b5b505050565b600073ffffffffffffffffffffffffffffffffffffffff168273ffffffffffffffffffffffffffffffffffffffff1614156126f9576040517f08c379a00000000000000000000000000000000000000000000000000000000081526004016126f090614314565b60405180910390fd5b612702816116af565b15612742576040517f08c379a000000000000000000000000000000000000000000000000000000000815260040161273990614380565b60405180910390fd5b61274e600083836122d0565b6001600360008473ffffffffffffffffffffffffffffffffffffffff1673ffffffffffffffffffffffffffffffffffffffff168152602001908152602001600020600082825461279e9190613658565b92505081905550816002600083815260200190815260200160002060006101000a81548173ffffffffffffffffffffffffffffffffffffffff021916908373ffffffffffffffffffffffffffffffffffffffff160217905550808273ffffffffffffffffffffffffffffffffffffffff16600073ffffffffffffffffffffffffffffffffffffffff167fddf252ad1be2c89b69c2b068fc378daa952ba7f163c4a11628f55a4df523b3ef60405160405180910390a45050565b600080823b905060008111915050919050565b505050565b6008805490506009600083815260200190815260200160002081905550600881908060018154018082558091505060019003906000526020600020016000909190919091505550565b600060016128c584610faf565b6128cf9190613ef0565b90506000600760008481526020019081526020016000205490508181146129b4576000600660008673ffffffffffffffffffffffffffffffffffffffff1673ffffffffffffffffffffffffffffffffffffffff168152602001908152602001600020600084815260200190815260200160002054905080600660008773ffffffffffffffffffffffffffffffffffffffff1673ffffffffffffffffffffffffffffffffffffffff168152602001908152602001600020600084815260200190815260200160002081905550816007600083815260200190815260200160002081905550505b6007600084815260200190815260200160002060009055600660008573ffffffffffffffffffffffffffffffffffffffff1673ffffffffffffffffffffffffffffffffffffffff16815260200190815260200160002060008381526020019081526020016000206000905550505050565b60006001600880549050612a399190613ef0565b9050600060096000848152602001908152602001600020549050600060088381548110612a6957612a68613919565b5b906000526020600020015490508060088381548110612a8b57612a8a613919565b5b906000526020600020018190555081600960008381526020019081526020016000208190555060096000858152602001908152602001600020600090556008805480612ada57612ad96143a0565b5b6001900381819060005260206000200160009055905550505050565b6000612b0183610faf565b905081600660008573ffffffffffffffffffffffffffffffffffffffff1673ffffffffffffffffffffffffffffffffffffffff168152602001908152602001600020600083815260200190815260200160002081905550806007600084815260200190815260200160002081905550505050565b6000604051905090565b600080fd5b600080fd5b60007fffffffff0000000000000000000000000000000000000000000000000000000082169050919050565b612bbe81612b89565b8114612bc957600080fd5b50565b600081359050612bdb81612bb5565b92915050565b600060208284031215612bf757612bf6612b7f565b5b6000612c0584828501612bcc565b91505092915050565b60008115159050919050565b612c2381612c0e565b82525050565b6000602082019050612c3e6000830184612c1a565b92915050565b600081519050919050565b600082825260208201905092915050565b60005b83811015612c7e578082015181840152602081019050612c63565b83811115612c8d576000848401525b50505050565b6000601f19601f8301169050919050565b6000612caf82612c44565b612cb98185612c4f565b9350612cc9818560208601612c60565b612cd281612c93565b840191505092915050565b60006020820190508181036000830152612cf78184612ca4565b905092915050565b6000819050919050565b612d1281612cff565b8114612d1d57600080fd5b50565b600081359050612d2f81612d09565b92915050565b600060208284031215612d4b57612d4a612b7f565b5b6000612d5984828501612d20565b91505092915050565b600073ffffffffffffffffffffffffffffffffffffffff82169050919050565b6000612d8d82612d62565b9050919050565b612d9d81612d82565b82525050565b6000602082019050612db86000830184612d94565b92915050565b612dc781612d82565b8114612dd257600080fd5b50565b600081359050612de481612dbe565b92915050565b60008060408385031215612e0157612e00612b7f565b5b6000612e0f85828601612dd5565b9250506020612e2085828601612d20565b9150509250929050565b612e3381612cff565b82525050565b6000602082019050612e4e6000830184612e2a565b92915050565b600080600060608486031215612e6d57612e6c612b7f565b5b6000612e7b86828701612dd5565b9350506020612e8c86828701612dd5565b9250506040612e9d86828701612d20565b9150509250925092565b600060208284031215612ebd57612ebc612b7f565b5b6000612ecb84828501612dd5565b91505092915050565b612edd81612c0e565b8114612ee857600080fd5b50565b600081359050612efa81612ed4565b92915050565b60008060408385031215612f1757612f16612b7f565b5b6000612f2585828601612dd5565b9250506020612f3685828601612eeb565b9150509250929050565b600080fd5b600080fd5b7f4e487b7100000000000000000000000000000000000000000000000000000000600052604160045260246000fd5b612f8282612c93565b810181811067ffffffffffffffff82111715612fa157612fa0612f4a565b5b80604052505050565b6000612fb4612b75565b9050612fc08282612f79565b919050565b600067ffffffffffffffff821115612fe057612fdf612f4a565b5b612fe982612c93565b9050602081019050919050565b82818337600083830152505050565b600061301861301384612fc5565b612faa565b90508281526020810184848401111561303457613033612f45565b5b61303f848285612ff6565b509392505050565b600082601f83011261305c5761305b612f40565b5b813561306c848260208601613005565b91505092915050565b6000806000806080858703121561308f5761308e612b7f565b5b600061309d87828801612dd5565b94505060206130ae87828801612dd5565b93505060406130bf87828801612d20565b925050606085013567ffffffffffffffff8111156130e0576130df612b84565b5b6130ec87828801613047565b91505092959194509250565b6000806040838503121561310f5761310e612b7f565b5b600061311d85828601612dd5565b925050602061312e85828601612dd5565b9150509250929050565b7f4e487b7100000000000000000000000000000000000000000000000000000000600052602260045260246000fd5b6000600282049050600182168061317f57607f821691505b6020821081141561319357613192613138565b5b50919050565b7f4552433732313a20617070726f76656420717565727920666f72206e6f6e657860008201527f697374656e7420746f6b656e0000000000000000000000000000000000000000602082015250565b60006131f5602c83612c4f565b915061320082613199565b604082019050919050565b60006020820190508181036000830152613224816131e8565b9050919050565b7f4552433732313a20617070726f76616c20746f2063757272656e74206f776e6560008201527f7200000000000000000000000000000000000000000000000000000000000000602082015250565b6000613287602183612c4f565b91506132928261322b565b604082019050919050565b600060208201905081810360008301526132b68161327a565b9050919050565b7f4552433732313a20617070726f76652063616c6c6572206973206e6f74206f7760008201527f6e6572206e6f7220617070726f76656420666f7220616c6c0000000000000000602082015250565b6000613319603883612c4f565b9150613324826132bd565b604082019050919050565b600060208201905081810360008301526133488161330c565b9050919050565b7f4552433732313a207472616e736665722063616c6c6572206973206e6f74206f60008201527f776e6572206e6f7220617070726f766564000000000000000000000000000000602082015250565b60006133ab603183612c4f565b91506133b68261334f565b604082019050919050565b600060208201905081810360008301526133da8161339e565b9050919050565b7f6275795469636b6574733a2053616c65206d757374206265206163746976652060008201527f746f20627579207469636b657400000000000000000000000000000000000000602082015250565b600061343d602d83612c4f565b9150613448826133e1565b604082019050919050565b6000602082019050818103600083015261346c81613430565b9050919050565b7f6275795469636b6574733a2043616e206f6e6c7920627579203420746f6b656e60008201527f7320617420612074696d65000000000000000000000000000000000000000000602082015250565b60006134cf602b83612c4f565b91506134da82613473565b604082019050919050565b600060208201905081810360008301526134fe816134c2565b9050919050565b7f6275795469636b6574733a20507572636861736520776f756c6420657863656560008201527f64206d617820737570706c79206f66207469636b657473000000000000000000602082015250565b6000613561603783612c4f565b915061356c82613505565b604082019050919050565b6000602082019050818103600083015261359081613554565b9050919050565b7f6275795469636b6574733a2045746865722076616c75652073656e742069732060008201527f6e6f7420636f7272656374000000000000000000000000000000000000000000602082015250565b60006135f3602b83612c4f565b91506135fe82613597565b604082019050919050565b60006020820190508181036000830152613622816135e6565b9050919050565b7f4e487b7100000000000000000000000000000000000000000000000000000000600052601160045260246000fd5b600061366382612cff565b915061366e83612cff565b9250827fffffffffffffffffffffffffffffffffffffffffffffffffffffffffffffffff038211156136a3576136a2613629565b5b828201905092915050565b60006136b982612cff565b91507fffffffffffffffffffffffffffffffffffffffffffffffffffffffffffffffff8214156136ec576136eb613629565b5b600182019050919050565b7f455243373231456e756d657261626c653a206f776e657220696e646578206f7560008201527f74206f6620626f756e6473000000000000000000000000000000000000000000602082015250565b6000613753602b83612c4f565b915061375e826136f7565b604082019050919050565b6000602082019050818103600083015261378281613746565b9050919050565b7f4f776e61626c653a2063616c6c6572206973206e6f7420746865206f776e6572600082015250565b60006137bf602083612c4f565b91506137ca82613789565b602082019050919050565b600060208201905081810360008301526137ee816137b2565b9050919050565b7f4552433732314275726e61626c653a2063616c6c6572206973206e6f74206f7760008201527f6e6572206e6f7220617070726f76656400000000000000000000000000000000602082015250565b6000613851603083612c4f565b915061385c826137f5565b604082019050919050565b6000602082019050818103600083015261388081613844565b9050919050565b7f455243373231456e756d657261626c653a20676c6f62616c20696e646578206f60008201527f7574206f6620626f756e64730000000000000000000000000000000000000000602082015250565b60006138e3602c83612c4f565b91506138ee82613887565b604082019050919050565b60006020820190508181036000830152613912816138d6565b9050919050565b7f4e487b7100000000000000000000000000000000000000000000000000000000600052603260045260246000fd5b7f4552433732313a206f776e657220717565727920666f72206e6f6e657869737460008201527f656e7420746f6b656e0000000000000000000000000000000000000000000000602082015250565b60006139a4602983612c4f565b91506139af82613948565b604082019050919050565b600060208201905081810360008301526139d381613997565b9050919050565b7f4552433732313a2062616c616e636520717565727920666f7220746865207a6560008201527f726f206164647265737300000000000000000000000000000000000000000000602082015250565b6000613a36602a83612c4f565b9150613a41826139da565b604082019050919050565b60006020820190508181036000830152613a6581613a29565b9050919050565b7f4552433732314d657461646174613a2055524920717565727920666f72206e6f60008201527f6e6578697374656e7420746f6b656e0000000000000000000000000000000000602082015250565b6000613ac8602f83612c4f565b9150613ad382613a6c565b604082019050919050565b60006020820190508181036000830152613af781613abb565b9050919050565b600081905092915050565b6000613b1482612c44565b613b1e8185613afe565b9350613b2e818560208601612c60565b80840191505092915050565b6000613b468285613b09565b9150613b528284613b09565b91508190509392505050565b7f726573657276655469636b6574733a20547269656420746f207265736572766560008201527f206d6f726520746865203230207469636b657473000000000000000000000000602082015250565b6000613bba603483612c4f565b9150613bc582613b5e565b604082019050919050565b60006020820190508181036000830152613be981613bad565b9050919050565b7f726573657276655469636b6574733a207265736572766520706c75732073757060008201527f706c7920697320626967676572207468616e206d6178207469636b657420616d60208201527f6f756e7400000000000000000000000000000000000000000000000000000000604082015250565b6000613c72604483612c4f565b9150613c7d82613bf0565b606082019050919050565b60006020820190508181036000830152613ca181613c65565b9050919050565b7f4f776e61626c653a206e6577206f776e657220697320746865207a65726f206160008201527f6464726573730000000000000000000000000000000000000000000000000000602082015250565b6000613d04602683612c4f565b9150613d0f82613ca8565b604082019050919050565b60006020820190508181036000830152613d3381613cf7565b9050919050565b7f4552433732313a206f70657261746f7220717565727920666f72206e6f6e657860008201527f697374656e7420746f6b656e0000000000000000000000000000000000000000602082015250565b6000613d96602c83612c4f565b9150613da182613d3a565b604082019050919050565b60006020820190508181036000830152613dc581613d89565b9050919050565b7f4552433732313a207472616e73666572206f6620746f6b656e2074686174206960008201527f73206e6f74206f776e0000000000000000000000000000000000000000000000602082015250565b6000613e28602983612c4f565b9150613e3382613dcc565b604082019050919050565b60006020820190508181036000830152613e5781613e1b565b9050919050565b7f4552433732313a207472616e7366657220746f20746865207a65726f2061646460008201527f7265737300000000000000000000000000000000000000000000000000000000602082015250565b6000613eba602483612c4f565b9150613ec582613e5e565b604082019050919050565b60006020820190508181036000830152613ee981613ead565b9050919050565b6000613efb82612cff565b9150613f0683612cff565b925082821015613f1957613f18613629565b5b828203905092915050565b6000613f2f82612cff565b9150613f3a83612cff565b9250817fffffffffffffffffffffffffffffffffffffffffffffffffffffffffffffffff0483118215151615613f7357613f72613629565b5b828202905092915050565b7f5061757361626c653a206e6f7420706175736564000000000000000000000000600082015250565b6000613fb4601483612c4f565b9150613fbf82613f7e565b602082019050919050565b60006020820190508181036000830152613fe381613fa7565b9050919050565b7f5061757361626c653a2070617573656400000000000000000000000000000000600082015250565b6000614020601083612c4f565b915061402b82613fea565b602082019050919050565b6000602082019050818103600083015261404f81614013565b9050919050565b7f4552433732313a20617070726f766520746f2063616c6c657200000000000000600082015250565b600061408c601983612c4f565b915061409782614056565b602082019050919050565b600060208201905081810360008301526140bb8161407f565b9050919050565b7f4552433732313a207472616e7366657220746f206e6f6e20455243373231526560008201527f63656976657220696d706c656d656e7465720000000000000000000000000000602082015250565b600061411e603283612c4f565b9150614129826140c2565b604082019050919050565b6000602082019050818103600083015261414d81614111565b9050919050565b7f4e487b7100000000000000000000000000000000000000000000000000000000600052601260045260246000fd5b600061418e82612cff565b915061419983612cff565b9250826141a9576141a8614154565b5b828204905092915050565b60006141bf82612cff565b91506141ca83612cff565b9250826141da576141d9614154565b5b828206905092915050565b600081519050919050565b600082825260208201905092915050565b600061420c826141e5565b61421681856141f0565b9350614226818560208601612c60565b61422f81612c93565b840191505092915050565b600060808201905061424f6000830187612d94565b61425c6020830186612d94565b6142696040830185612e2a565b818103606083015261427b8184614201565b905095945050505050565b60008151905061429581612bb5565b92915050565b6000602082840312156142b1576142b0612b7f565b5b60006142bf84828501614286565b91505092915050565b7f4552433732313a206d696e7420746f20746865207a65726f2061646472657373600082015250565b60006142fe602083612c4f565b9150614309826142c8565b602082019050919050565b6000602082019050818103600083015261432d816142f1565b9050919050565b7f4552433732313a20746f6b656e20616c7265616479206d696e74656400000000600082015250565b600061436a601c83612c4f565b915061437582614334565b602082019050919050565b600060208201905081810360008301526143998161435d565b9050919050565b7f4e487b7100000000000000000000000000000000000000000000000000000000600052603160045260246000fdfea26469706673582212206f2c548086872f3f442a2649d46bb81e3027ee426de3a7d3c5472301398e9e1364736f6c634300080b0033",
  "immutableReferences": {},
  "source": "// SPDX-License-Identifier: MIT\npragma solidity ^0.8.2;\n\nimport \"@openzeppelin/contracts/token/ERC721/ERC721.sol\";\nimport \"@openzeppelin/contracts/token/ERC721/extensions/ERC721Enumerable.sol\";\nimport \"@openzeppelin/contracts/security/Pausable.sol\";\nimport \"@openzeppelin/contracts/access/Ownable.sol\";\nimport \"@openzeppelin/contracts/token/ERC721/extensions/ERC721Burnable.sol\";\nimport \"@openzeppelin/contracts/utils/Counters.sol\";\nimport \"@openzeppelin/contracts/utils/math/SafeMath.sol\";\n\ncontract Tickets is ERC721, ERC721Enumerable, Pausable, Ownable, ERC721Burnable {\n    using Counters for Counters.Counter;\n\n    using SafeMath for uint;\n\n    /* VARIABLES */\n\n    Counters.Counter private _tokenIdCounter;\n\n    uint256 public MAX_TICKETS;\n\n    uint256 soldTickets;\n\n    uint public constant maxTicketPurchase = 4;\n\n    uint256 public constant ticketPrice = 10000000000000000; //0.01 ETH\n\n    /* EVENTS */\n\n    event ticketBought();\n\n    event ticketTransfered();\n\n    /* CONSTRUCTOR */\n\n    constructor(uint256 maxNftSupply) ERC721(\"Tickets\", \"TCKT\") {\n      MAX_TICKETS = maxNftSupply;\n    }\n\n    /* FUNCTIONS */\n\n    function pause() public onlyOwner {\n        _pause();\n    }\n\n    function unpause() public onlyOwner {\n        _unpause();\n    }\n\n    function totalSupply() public view override returns (uint256) {\n      return soldTickets;\n    }\n\n    function safeMint(address to) public onlyOwner {\n        uint256 tokenId = _tokenIdCounter.current();\n        _tokenIdCounter.increment();\n        _safeMint(to, tokenId);\n    }\n\n    /**\n     * Set some tickets aside\n     */\n    function reserveTickets(uint256 reserves) public onlyOwner {   \n        require(reserves < 20, \"reserveTickets: Tried to reserve more the 20 tickets\");\n        uint supply = totalSupply();\n        require(reserves + supply <= MAX_TICKETS, \"reserveTickets: reserve plus supply is bigger than max ticket amount\");\n        uint i;\n        for (i = 0; i < reserves; i++) {\n            _safeMint(msg.sender, supply + i);\n        }\n    }\n\n    function withdraw() public onlyOwner {\n        uint balance = address(this).balance;\n        payable(msg.sender).transfer(balance);\n    }\n\n    /**\n    * Mints Tickets\n    */\n    function buyTickets(uint numberOfTokens) public payable {\n        require(!paused(), \"buyTickets: Sale must be active to buy ticket\");\n        require(numberOfTokens <= maxTicketPurchase, \"buyTickets: Can only buy 4 tokens at a time\");\n        require(totalSupply().add(numberOfTokens) <= MAX_TICKETS, \"buyTickets: Purchase would exceed max supply of tickets\");\n        require(ticketPrice.mul(numberOfTokens) <= msg.value, \"buyTickets: Ether value sent is not correct\");\n        \n        for(uint i = 0; i < numberOfTokens; i++) {\n            uint mintIndex = totalSupply();\n            if (totalSupply() < MAX_TICKETS) {\n                soldTickets += 1; \n                _safeMint(msg.sender, mintIndex);\n            }\n        }\n    }\n\n    function _beforeTokenTransfer(address from, address to, uint256 tokenId)\n        internal\n        whenNotPaused\n        override(ERC721, ERC721Enumerable)\n    {\n        super._beforeTokenTransfer(from, to, tokenId);\n    }\n\n    // The following functions are overrides required by Solidity.\n\n    function supportsInterface(bytes4 interfaceId)\n        public\n        view\n        override(ERC721, ERC721Enumerable)\n        returns (bool)\n    {\n        return super.supportsInterface(interfaceId);\n    }\n}",
  "sourcePath": "/Users/allistermckenzie/Documents/blockchain-developer-bootcamp-final-project/contracts/Tickets.sol",
  "compiler": {
    "name": "solc",
    "version": "0.8.11+commit.d7f03943.Emscripten.clang"
  },
  "schemaVersion": "3.4.3",
  "updatedAt": "2022-01-11T17:49:46.167Z",
  "networkType": "ethereum",
  "devdoc": {
    "kind": "dev",
    "methods": {
      "approve(address,uint256)": {
        "details": "See {IERC721-approve}."
      },
      "balanceOf(address)": {
        "details": "See {IERC721-balanceOf}."
      },
      "burn(uint256)": {
        "details": "Burns `tokenId`. See {ERC721-_burn}. Requirements: - The caller must own `tokenId` or be an approved operator."
      },
      "getApproved(uint256)": {
        "details": "See {IERC721-getApproved}."
      },
      "isApprovedForAll(address,address)": {
        "details": "See {IERC721-isApprovedForAll}."
      },
      "name()": {
        "details": "See {IERC721Metadata-name}."
      },
      "owner()": {
        "details": "Returns the address of the current owner."
      },
      "ownerOf(uint256)": {
        "details": "See {IERC721-ownerOf}."
      },
      "paused()": {
        "details": "Returns true if the contract is paused, and false otherwise."
      },
      "renounceOwnership()": {
        "details": "Leaves the contract without owner. It will not be possible to call `onlyOwner` functions anymore. Can only be called by the current owner. NOTE: Renouncing ownership will leave the contract without an owner, thereby removing any functionality that is only available to the owner."
      },
      "safeTransferFrom(address,address,uint256)": {
        "details": "See {IERC721-safeTransferFrom}."
      },
      "safeTransferFrom(address,address,uint256,bytes)": {
        "details": "See {IERC721-safeTransferFrom}."
      },
      "setApprovalForAll(address,bool)": {
        "details": "See {IERC721-setApprovalForAll}."
      },
      "symbol()": {
        "details": "See {IERC721Metadata-symbol}."
      },
      "tokenByIndex(uint256)": {
        "details": "See {IERC721Enumerable-tokenByIndex}."
      },
      "tokenOfOwnerByIndex(address,uint256)": {
        "details": "See {IERC721Enumerable-tokenOfOwnerByIndex}."
      },
      "tokenURI(uint256)": {
        "details": "See {IERC721Metadata-tokenURI}."
      },
      "totalSupply()": {
        "details": "See {IERC721Enumerable-totalSupply}."
      },
      "transferFrom(address,address,uint256)": {
        "details": "See {IERC721-transferFrom}."
      },
      "transferOwnership(address)": {
        "details": "Transfers ownership of the contract to a new account (`newOwner`). Can only be called by the current owner."
      }
    },
    "version": 1
  },
  "userdoc": {
    "kind": "user",
    "methods": {
      "buyTickets(uint256)": {
        "notice": "Mints Tickets"
      },
      "reserveTickets(uint256)": {
        "notice": "Set some tickets aside"
      }
    },
    "version": 1
  }
}